:040000000AEF00F013
:10000800FACF48F0FBCF49F098ED04F096EF05F0F1
:1006000000536D6172742054726166666963205391
:10061000797300544520452654432050524F4A4593
:100620004354200057414954494E4720464F5220D9
:100630004B4559005455524E205249474854005496
:1006400055524E204C454654005052455353454454
:1006500000464F5257415244005245564552534569
:100660000000666E460E676E6650666E520E686ECD
:100670006650666E4C0E696E6650666E420E6A6E0D
:10068000665094809482948495804FEC05F0A8EC99
:1006900005F0000E616E000E606E000E636E010EBE
:1006A000626E060E656E010E646E77EC05F0000E4C
:1006B000616E010E606E000E636E000E626E060EBD
:1006C000656E130E646E77EC05F0000E576E640EC7
:1006D000566E10EC05F0D3EC04F0090E576E600E68
:1006E000566EF2EC04F082A038D0000E6C6E000E54
:1006F0006B6E6C50800A800F140ED8B46B5CD8B04F
:1007000013D0410EA1EC05F0410EA1EC05F06750AD
:10071000A1EC05F06750FF0AA1EC05F05A0EA1EC20
:1007200005F06B4A6C2AE5D7A8EC05F0000E616E67
:10073000000E606E000E636E040E626E060E656E35
:10074000510E646E77EC05F0000E576E1E0E566E5D
:1007500010EC05F0D3EC04F0C6D782A238D0000E1E
:100760006C6E000E6B6E6C50800A800F140ED8B445
:100770006B5CD8B013D0410EA1EC05F0410EA1EC9A
:1007800005F06A50A1EC05F06A50FF0AA1EC05F0F3
:100790005A0EA1EC05F06B4A6C2AE5D7A8EC05F0DF
:1007A000000E616E000E606E000E636E040E626ECF
:1007B000060E656E590E646E77EC05F0000E576EEE
:1007C0001E0E566E10EC05F0D3EC04F08CD782A40C
:1007D00038D0000E6C6E000E6B6E6C50800A800F6D
:1007E000140ED8B46B5CD8B013D0410EA1EC05F058
:1007F000410EA1EC05F06950A1EC05F06950FF0A2B
:10080000A1EC05F05A0EA1EC05F06B4A6C2AE5D775
:10081000A8EC05F0000E616E000E606E000E636EB7
:10082000030E626E060E656E3F0E646E77EC05F089
:10083000000E576E1E0E566E10EC05F0D3EC04F051
:1008400052D783A050D7000E6C6E000E6B6E6C50AA
:10085000800A800F140ED8B46B5CD8B013D0410E50
:10086000A1EC05F0410EA1EC05F06850A1EC05F0FB
:100870006850FF0AA1EC05F05A0EA1EC05F06B4A96
:100880006C2AE5D7A8EC05F0000E616E000E606ED4
:10089000000E636E030E626E060E656E340E646E9D
:1008A00077EC05F0000E576E1E0E566E10EC05F03C
:1008B000D3EC04F018D7AECF47F041503F0AD8A48C
:1008C00003D04250D8B415D042C043F0446A43BE6E
:1008D000440641C045F0466A45BE4606010E45261F
:1008E000000E46224450461802E143504518D8A451
:1008F00007D0422A4250400AD8A402D0000E426ECD
:1009000041503F0AD8A403D0000E416E01D0412AC5
:100910004150010D010EF324D96E000EF420DA6E61
:1009200047C0DFFF4228D8A402D0000E426E12005A
:100930000600E9CF4AF0EACF4BF0E1CF4CF0E2CF2E
:100940004DF0D9CF4EF0DACF4FF0F3CF50F0F4CFD7
:1009500051F0F6CF52F0F7CF53F0F8CF54F0F5CF77
:1009600055F09DBA9EAA02D05BEC04F055C0F5FF8D
:1009700054C0F8FF53C0F7FF52C0F6FF51C0F4FF58
:1009800050C0F3FF4FC0DAFF4EC0D9FF4DC0E2FFA9
:100990004CC0E1FF4BC0EAFF4AC0E9FF49C0FBFF82
:1009A00048C0FAFF1100A8EC05F0000E616E000EC1
:1009B000606E000E636E010E626E060E656E240E92
:1009C000646E77EC05F0000E616E010E606E000E35
:1009D000636E040E626E060E656E490E646E77ECF1
:1009E00005F012004168426803D0810EAF6E0CD052
:1009F00056C058F057C059F05950090AD8A404D02D
:100A00005850600AD8B4F1D7AC9CAC8AAC98AC947E
:100A1000AB8EAB9CAB88AB969D8AF28CF28E1200AB
:100A2000000E5A6E000E596E0AD0410E586EEE0E30
:100A3000E82EFED7582EFCD700D0594A5A2A5650D5
:100A4000595C57505A58D8B01200EFD70AD05CC042
:100A5000F6FF5DC0F7FF0800F5503BEC05F05C4A7F
:100A60005D2A5CC0F6FF5DC0F7FF0800F550000985
:100A7000D8B41200ECD7E8CF5BF0000E576E010E31
:100A8000566E10EC05F05BC081FF838C838E000EE8
:100A9000576E010E566E10EC05F0839E1200000E8C
:100AA000936E959C959E380E63EC05F0010E63ECF9
:100AB00005F0060E63EC05F00C0E63EC05F0800EFD
:100AC00063EC05F01200E8CF5BF0000E576E010EEC
:100AD000566E10EC05F05BC081FF839C838E000E88
:100AE000576E010E566E10EC05F0839E120060C02A
:100AF0005CF061C05DF062C05EF063C05FF088ECE6
:100B000005F065C05DF064C05CF026EC05F01200F5
:100B10005D505C10D8A405D05E50800F63EC05F0EA
:100B200004D05E50C00F63EC05F0120000EE01F03F
:100B3000420EEE6AE806FDE1000EF86E000131EFAC
:100B400003F0E8CF56F09EA8FED756C0ADFF1200C6
:0E0B5000010E63EC05F0800E63EC05F0120060
:020000040020DA
:08000000FFFFFFFFFFFFFFFF00
:020000040030CA
:0E000000FF021B1EFF8381FF0FC00FE00F40A9
:00000001FF
