:040000000AEF00F013
:10000800FACF46F0FBCF47F03FED01F0EEEF01F0FD
:10001800596E000E606E59509490949294949590F5
:100028009592959495969598959A959C9390959E6A
:10003800090E556E600E546E9CEC01F07AEC01F0DE
:100048000009D8B4FBD7BAEC01F0410AD8A4F6D716
:100058007AEC01F00009D8B4FBD7BAEC01F0410AF8
:10006800D8A4ECD77AEC01F0030AD8A4FBD7596ED0
:10007800020E5F6E59500ED0BAEC01F0596E5F5007
:10008800010D5A0EF324D96E000EF420DA6E59C011
:10009800DFFF5F2A040E5F64EFD75D50FF0A5C182C
:1000A800D8A4CCD75E505A0AD8A4C8D75CC060F090
:1000B8006050460AD8A425D0829082828294838098
:1000C8008392839483868398839A838C8190839E7A
:1000D800000E556E640E546ED8EC01F08290829238
:1000E800828483808392839483868398839A838C83
:1000F8008190839E010E556E2C0E546ED8EC01F043
:100108007AD06050420AD8A425D082808292829404
:1001180083908382839483868398839A838C819047
:10012800839E000E556E640E546ED8EC01F08280EA
:100138008292829483908392838483868398839A1D
:10014800838C8190839E000E556EC80E546ED8EC39
:1001580001F051D060504C0AD8A425D082808292F8
:10016800829483808392839483968388839A838CF2
:100178008190839E000E556E640E546ED8EC01F08B
:1001880082808292829483808392839483968398D8
:10019800838A838C8190839E000E556EC80E546EA0
:1001A800D8EC01F028D06050520AD8A424D082801C
:1001B8008292829483808392839483868398839A9D
:1001C800839C8180839E000E556E640E546ED8EC1D
:1001D80001F08280829282948380839283948386C2
:1001E8008398839A839C8190838E000E556EC80EE7
:1001F800546ED8EC01F0F9EC01F020D7AECF45F001
:1002080061503F0AD8A403D06250D8B415D062C058
:1002180041F0426A41BE420661C043F0446A43BEAF
:100228004406010E4326000E44224250441802E1BF
:1002380041504318D8A407D0622A6250400AD8A473
:1002480002D0000E626E61503F0AD8A403D0000E9F
:10025800616E01D0612A6150010D010EF324D96E3F
:10026800000EF420DA6E45C0DFFF6228D8A402D061
:10027800000E626E12000600E9CF48F0EACF49F09E
:10028800E1CF4AF0E2CF4BF0D9CF4CF0DACF4DF0C6
:10029800F3CF4EF0F4CF4FF0F6CF50F0F7CF51F048
:1002A800F8CF52F0F5CF53F09DBA9EAA02D002ECD7
:1002B80001F053C0F5FF52C0F8FF51C0F7FF50C01E
:1002C800F6FF4FC0F4FF4EC0F3FF4DC0DAFF4CC03D
:1002D800D9FF4BC0E2FF4AC0E1FF49C0EAFF48C06E
:1002E800E9FF47C0FBFF46C0FAFF11006228D8A407
:1002F80002D0000E1CD06250800A546E6150800AF1
:10030800545CD8B006D0625000086124546E54285A
:100318000ED06150800A546E6250800A545CD8B086
:1003280005D0625000086124410F01D0010E12006F
:100338006168626803D0810EAF6E0CD054C056F06D
:1003480055C057F05750090AD8A404D05650600A2F
:10035800D8B4F1D7AC9CAC8AAC98AC94AB8EAB9CBF
:10036800AB88AB969D8AF28CF28E12006228D8A4D4
:1003780002D0000E18D06250010D010EF324D96E80
:10038800000EF420DA6EDF50546E6150626203D0C2
:100398006168626807D0622A6250400AD8A402D015
:1003A800000E626E54501200000E586E000E576E0A
:1003B8000AD0410E566EEE0EE82EFED7562EFCD70A
:1003C80000D0574A582A5450575C55505858D8B0FE
:1003D8001200EFD700EE01F0400EEE6AE806FDE1EC
:1003E800000EF86E00010CEF00F002D0BAEC01F03C
:0C03F8007AEC01F00009D8B41200F8D72C
:020000040020DA
:08000000FFFFFFFFFFFFFFFF00
:020000040030CA
:0E000000FF021B1EFF8381FF0FC00FE00F40A9
:00000001FF
